:100000000C9450000C9423010C94D4000C94D40054
:100010000C94D4000C949C010C94B1010C94C60176
:100020000C94D8010C94D4000C94D4000C94D400FB
:100030000C94D4000C94D4000C94F8000C94D400CC
:100040000C94D6000C94D4000C94D4000C94D400DE
:100050000C94D4000C94D4000C94D4000C94D400D0
:100060000C94D4000C94D4000C94D4000C94D400C0
:100070000C94D4000C94D4000C94D4000C94D400B0
:100080000C94D4000C94D4000C94D40098009000EC
:100090004150524D3030330057656C636F6D6500D1
:1000A00011241FBECFEFD0E1DEBFCDBF88E08AB9FB
:1000B00086E080939D008FEF8BBB8ABB18BA87BB0D
:1000C00085BB14BA93E092BB84E081BB20EF23B9D7
:1000D00092B99BE0909362009FE39093610094E15A
:1000E000909365009FE19093640010BE13BE12BE12
:1000F00011BE1FBC1EBC1DBC1CBC17BC16BC1BBC4F
:100100001ABC19BC18BC109279001092780015BC6A
:1001100014BC13BC10928B0010928A0010928900BC
:100120001092880010928100109280001092870037
:100130001092860010928500109284001092830025
:100140001092820090E29BB91AB81092950010921A
:10015000900019B810926A009AEA9ABF91EF99BF7D
:1001600091E098BF87BF10927D0080E888B910BCED
:1001700080EC87B987E886B9789411E0A0E0B1E017
:10018000EEE2FAE002C005900D92A831B107D9F76E
:1001900011E0A8E1B1E001C01D92AD3AB107E1F76D
:1001A0000E948A020C9415050C9400001F920F9275
:1001B0000FB60F9211248F9313BE8091AB0182BFB3
:1001C00087E083BF80919801843039F410929801C0
:1001D000B49B02C0C49801C0C49A809198018F5FFB
:1001E000809398018F910F900FBE0F901F901895DC
:1001F0001F920F920FB60F9211248F939F931EBCE4
:100200008091AA0190E09DBD8CBD8091AC01893C9C
:1002100060F49091AA018091A901890F8093AA01AD
:100220008091AC018F5F8093AC01B49B02C0C498F5
:1002300001C0C49A81E08EBD9F918F910F900FBE37
:100240000F901F9018951F920F920FB60F921124C6
:100250002F933F938F939F93AF93BF93EF93FF930E
:10026000F894DE9A8FEF85BB14BA809165008D7F7C
:100270008093650080916500806180936500E8E16E
:10028000F1E0809165008B7F809365002AE12A95DB
:10029000F1F700C083B381938091650084608093FF
:1002A00065008AE18A95F1F700C021E0E032F207AB
:1002B00041F78091180180930001809100018434FE
:1002C00011F438E801C030E480E291E0FC012091B3
:1002D00065002B7F209365002AE12A95F1F700C085
:1002E00023B32193209165002460209365002AE1C7
:1002F0002A95F1F700C02E2F281B231740F3809179
:100300000001843449F480E4E8E6F1E0A0E6B1E0DD
:1003100001900D928A95E1F715BA14BA7894FF917D
:10032000EF91BF91AF919F918F913F912F910F903E
:100330000FBE0F901F9018951F920F920FB60F923D
:1003400011248F9380912801813329F40C9903C0E3
:100350008EE4809300018F910F900FBE0F901F903D
:1003600018951F920F920FB60F9211248F938091C0
:100370002801803329F40D9903C08EE48093000195
:100380008F910F900FBE0F901F9018951F920F9294
:100390000FB60F9211248F9380912501803311F4B1
:1003A0000E9BC6988F910F900FBE0F901F901895BF
:1003B0001F920F920FB60F9211248F9380912501F7
:1003C000803311F40F9BC6988F910F900FBE0F9042
:1003D0001F901895E5E6F0E08081826080838DE0D3
:1003E0008A95F1F7000080818D7F8083089590E0E9
:1003F00003C0DA9ADA989F5F9813FBCF0895D898D4
:10040000DC98DC9A8153863140F4E82FF0E0EF5F0E
:10041000FE4F808181110E94F701D89A0895809142
:1004200065008F7E809365000E94EA0188E090E07D
:100430001CC0408150E0022E02C0559547950A9499
:10044000E2F740FF04C040916500416003C0409165
:1004500065004E7F40936500DA9ADA9821503109A1
:1004600040F701968838910531F027E030E0FC0133
:10047000E85EFE4FDECF809165008D7F8093650042
:1004800080916500806180936500D99A0895E5E6C2
:10049000F0E0808182608083DC98DC9A8AE08A9533
:1004A000F1F700C080818D7F80830895882311F04B
:1004B000DB9A01C0DB9883E082BB84E081BBD89AE1
:1004C000D99ADC98DC9ADD98DD9A0895806C87B91A
:1004D0008AE18A95F1F700C0369A349BFECF84B149
:1004E000FB01808385B1FA018083089505C02AE16C
:1004F0002A95F1F700C001970097C9F7089507C042
:10050000EFECF7E03197F1F700C000008150811166
:10051000F7CF0895CF93DF9300D000D0CDB7DEB7EB
:10052000D99A929887E30E94FF01929A929867E382
:10053000362EEEE8F0E065907490ECE8F0E0A590DF
:10054000B4909FB7F894809100019FBF8E34C9F397
:1005500080910001803509F48BC198F4843409F44A
:1005600060C030F4823479F1C0F5813451F723C092
:10057000893409F461C18D3409F446C1873409F71F
:1005800061C0883509F414C248F4843509F4C5C142
:10059000873509F4E2C18235A1F6B3C1803709F489
:1005A000ACC118F48D3669F659C0823709F4ACC174
:1005B000833739F6ACC180E8E0E2F1E0DF011D925B
:1005C0008A95E9F708C040E850E06FEF70E080E2FC
:1005D00091E00E940E0584E4FAC1929820911901DD
:1005E00080911A0190911B01B2E02B9F800D112484
:1005F0008059880F890F0E94FF01929A9298EFEF1D
:10060000F1EE24E0E150F0402040E1F700C00000AE
:1006100080916500806180936500832D0E94FF01B9
:100620000FC03090190134E031BBD998DC98DC9AC6
:10063000D898832D0E94FF01D89AD9980E940F0262
:10064000D99A5FC180916500806180936500309088
:100650001901832D0E94FF01D99AB8C1DB989091AE
:100660002001809121019A83198289809A80882AA9
:100670009091220180912301592E412C7201E82A88
:1006800080912401803311F0C09A01C0C0988091FC
:100690002801803311F0C59A01C0C59880912601C8
:1006A000809129018093AA0180912701803311F064
:1006B0001A9A01C01A9880912501803311F0C39ACB
:1006C00001C0C39880911E01803311F0C29A01C00D
:1006D000C29880911F01803311F0C69A01C0C6985C
:1006E0000E9B04C080912501803331F00F9B1FC009
:1006F000809125018133D9F48091AA0190E0809501
:10070000909568EC70E00E94EA046093A901109251
:10071000AC018091AA01880F8F5F8093AA0180911C
:10072000AA0190E09DBD8CBD1FBC81E08EBD809173
:100730002A010E947F0280912B010E947F020C9B64
:1007400005C080912801813309F44AC00D9905C084
:100750001EBCC298C698C79834C1809128018033C6
:10076000B9F73EC0C1982B813C81293C310570F41A
:10077000C801B6010E94EA046F5F7F4F6E9DC00101
:100780006F9D900D7E9D900D112408C0211005C015
:1007900080E00E94560222242394C7010E94760220
:1007A000C19A2B813C81293C310570F4C801B60106
:1007B0000E94EA046F5F7F4F6E9DC0016F9D900D98
:1007C0007E9D900D112401C0C7010E9476022B81ED
:1007D0003C812F5F3F4F3C832B830150110908C0A0
:1007E00008EC10E01C821B82212C58ECC52ED12C69
:1007F000809100018D3609F0ABCF2B813C8128150B
:10080000390509F0AFCFA4CF15BA8FEF84BB8501AE
:10081000C5010E94050520E009C0819907C0DF9A43
:10082000E00FF11FE491E5BBDF982F5FE22FF0E0CE
:10083000E817F90790F3B9C015BA8FEF84BB80E1D0
:10084000E9E9F1E0DF011D928A95E9F7B301CF01F3
:100850000E94FE04E9E9F1E006C08199FECFDF9A2B
:10086000819185BBDF98B1E0E93AFB07B1F79DC004
:10087000EFE3E093610081E080936200F5E8FA9590
:10088000F1F7000029E030E089E0821B823068F453
:1008900084E0809362009AE19A95F1F700C010928B
:1008A0006200AAE1AA95F1F71CC08091200190E0B6
:1008B000022E02C0959587950A94E2F781709927D8
:1008C00043E0880F991F4A95E1F7846080936200A6
:1008D000BAE1BA95F1F700C010926200EAE1EA9538
:1008E000F1F700C02150310978F682E08093620070
:1008F00025E82A95F1F7000069C081E08093620045
:1009000065C00E94EA0162C00E9447025FC08091F8
:10091000190180530E94560259C0DE9A15BA8FEF12
:1009200084BBDF9880E1E9E9F1E0DF011D928A955F
:10093000E9F74AE951E0BF0187E00E946602E9E970
:10094000F1E006C08199FECFDF9A819185BBDF98E7
:10095000B1E0E93AFB07B1F728C015BA14BADE983E
:10096000DF98DA9880E01CC0819909C0DF9ADF988F
:10097000DA9ADF9ADF98DA983F5F01C030E037FFFC
:10098000F3CF2F5F01C020E030911B012317B0F39C
:100990009F5F01C090E020911A019217A0F38F5F32
:1009A000909119018917B0F3DE9A15BA14BA0EC0E6
:1009B000C79880911901803321F08091650088608B
:1009C00003C080916500877F809365008EE48093EB
:1009D0000001B7CDAA1BBB1B51E107C0AA1FBB1F5B
:1009E000A617B70710F0A61BB70B881F991F5A95BB
:1009F000A9F780959095BC01CD010895FB01DC011C
:100A000005900D920020E1F70895FC01059000206B
:100A1000E9F7809590958E0F9F1F0895DC0101C026
:0E0A20006D9341505040E0F70895F894FFCFD9
:100A2E004E04080C1014181C2024000000000000B6
:080A3E0000282C3034383C0084
:00000001FF
